:10FC0000112494B714BE892F8D7011F0892F19D14A
:10FC100085E08093810082E08093C00088E180933A
:10FC2000C10086E08093C20080E18093C4008EE032
:10FC3000F2D0209A86E020E33CEF91E030938500FB
:10FC40002093840096BBB09BFECF189AA895815054
:10FC5000A9F7CC24DD2433E0732EAA24A39425E055
:10FC6000922E91E1892ECBD0813471F4C8D0182F17
:10FC7000D8D0123811F482E005C0113811F486E0B2
:10FC800001C083E0B4D0B0C0823411F484E103C079
:10FC9000853419F485E0CDD0A7C0853579F4AFD08F
:10FCA000E82EFF24ACD0082F10E0102F00270E29DB
:10FCB0001F29000F111FB5D0680196C0863521F4A9
:10FCC00084E0B7D080E0DECF843609F059C097D009
:10FCD00090E0D82FCC2793D090E0C82BD92B8FD091
:10FCE000B82E8E01E12CF1E0FF2E89D0F70181932F
:10FCF0007F0101501040C9F794D0F5E4BF16C1F45C
:10FD00009601E0E0F1E011C04081F999FECFC90110
:10FD1000019631961FBA32BD21BD40BD0FB6F89491
:10FD2000FA9AF99A0FBE21979C01209769F75CC057
:10FD3000F60177BEE89507B600FCFDCFBE01A6012F
:10FD4000A0E0B1E02C9130E011968C91119790E0F9
:10FD5000982F8827822B932B1296FA010C01A7BEAD
:10FD6000E89511244E5F5F4F6250704059F7F601DD
:10FD700097BEE89507B600FCFDCF87BEE89534C076
:10FD8000843721F53CD090E0D82FCC2738D090E0B4
:10FD9000C82BD92B34D0182F44D0153479F4C60190
:10FDA0008C010F5F1F4FF999FECF92BD81BDF89A6C
:10FDB00080B51DD02197C1F0C801F2CF8601F801AE
:10FDC00085918F0114D02197D1F70EC0853739F472
:10FDD00028D08EE10CD086E90AD08AE053CF813555
:10FDE00011F488E018D01DD080E101D03CCF982FCD
:10FDF0008091C00085FFFCCF9093C600089580914C
:10FE0000C00087FFFCCF8091C00084FD01C0A89591
:10FE10008091C6000895E0E6F0E098E19083808349
:10FE20000895EDDF803219F088E0F5DFFFCF84E13F
:10FE3000DECF1F93182FE3DF1150E9F7F2DF1F9198
:0EFE40000895282E80E0E7DFEE27FF270994C3
:02FFFE000206F9
:040000030000FC00FD
:00000001FF
